{
  "address": "0xBfE0880eDdCC93cC1c659518FafCeF59A0eC8D0E",
  "abi": [
    {
      "inputs": [
        {
          "internalType": "contract IEntryPoint",
          "name": "_entryPoint",
          "type": "address"
        },
        {
          "internalType": "address",
          "name": "_verifyingSigner",
          "type": "address"
        }
      ],
      "stateMutability": "nonpayable",
      "type": "constructor"
    },
    {
      "inputs": [],
      "name": "ECDSAInvalidSignature",
      "type": "error"
    },
    {
      "inputs": [
        {
          "internalType": "uint256",
          "name": "length",
          "type": "uint256"
        }
      ],
      "name": "ECDSAInvalidSignatureLength",
      "type": "error"
    },
    {
      "inputs": [
        {
          "internalType": "bytes32",
          "name": "s",
          "type": "bytes32"
        }
      ],
      "name": "ECDSAInvalidSignatureS",
      "type": "error"
    },
    {
      "inputs": [
        {
          "internalType": "address",
          "name": "owner",
          "type": "address"
        }
      ],
      "name": "OwnableInvalidOwner",
      "type": "error"
    },
    {
      "inputs": [
        {
          "internalType": "address",
          "name": "account",
          "type": "address"
        }
      ],
      "name": "OwnableUnauthorizedAccount",
      "type": "error"
    },
    {
      "inputs": [],
      "name": "ReentrancyGuardReentrantCall",
      "type": "error"
    },
    {
      "anonymous": false,
      "inputs": [
        {
          "indexed": true,
          "internalType": "uint256",
          "name": "_oldValue",
          "type": "uint256"
        },
        {
          "indexed": true,
          "internalType": "uint256",
          "name": "_newValue",
          "type": "uint256"
        }
      ],
      "name": "EPGasOverheadChanged",
      "type": "event"
    },
    {
      "anonymous": false,
      "inputs": [
        {
          "indexed": true,
          "internalType": "bytes32",
          "name": "_paymasterId",
          "type": "bytes32"
        },
        {
          "indexed": true,
          "internalType": "uint256",
          "name": "_charge",
          "type": "uint256"
        }
      ],
      "name": "GasBalanceDeducted",
      "type": "event"
    },
    {
      "anonymous": false,
      "inputs": [
        {
          "indexed": true,
          "internalType": "bytes32",
          "name": "_paymasterId",
          "type": "bytes32"
        },
        {
          "indexed": true,
          "internalType": "uint256",
          "name": "_value",
          "type": "uint256"
        }
      ],
      "name": "GasDeposited",
      "type": "event"
    },
    {
      "anonymous": false,
      "inputs": [
        {
          "indexed": true,
          "internalType": "bytes32",
          "name": "_paymasterId",
          "type": "bytes32"
        },
        {
          "indexed": true,
          "internalType": "address",
          "name": "_to",
          "type": "address"
        },
        {
          "indexed": true,
          "internalType": "uint256",
          "name": "_value",
          "type": "uint256"
        }
      ],
      "name": "GasWithdrawn",
      "type": "event"
    },
    {
      "anonymous": false,
      "inputs": [
        {
          "indexed": true,
          "internalType": "address",
          "name": "previousOwner",
          "type": "address"
        },
        {
          "indexed": true,
          "internalType": "address",
          "name": "newOwner",
          "type": "address"
        }
      ],
      "name": "OwnershipTransferred",
      "type": "event"
    },
    {
      "inputs": [],
      "name": "COST_OF_POST",
      "outputs": [
        {
          "internalType": "uint256",
          "name": "",
          "type": "uint256"
        }
      ],
      "stateMutability": "view",
      "type": "function"
    },
    {
      "inputs": [
        {
          "internalType": "uint32",
          "name": "unstakeDelaySec",
          "type": "uint32"
        }
      ],
      "name": "addStake",
      "outputs": [],
      "stateMutability": "payable",
      "type": "function"
    },
    {
      "inputs": [],
      "name": "deposit",
      "outputs": [],
      "stateMutability": "payable",
      "type": "function"
    },
    {
      "inputs": [
        {
          "internalType": "bytes32",
          "name": "paymasterId",
          "type": "bytes32"
        }
      ],
      "name": "depositFor",
      "outputs": [],
      "stateMutability": "payable",
      "type": "function"
    },
    {
      "inputs": [],
      "name": "entryPoint",
      "outputs": [
        {
          "internalType": "contract IEntryPoint",
          "name": "",
          "type": "address"
        }
      ],
      "stateMutability": "view",
      "type": "function"
    },
    {
      "inputs": [
        {
          "internalType": "bytes32",
          "name": "paymasterId",
          "type": "bytes32"
        }
      ],
      "name": "getBalance",
      "outputs": [
        {
          "internalType": "uint256",
          "name": "balance",
          "type": "uint256"
        }
      ],
      "stateMutability": "view",
      "type": "function"
    },
    {
      "inputs": [],
      "name": "getDeposit",
      "outputs": [
        {
          "internalType": "uint256",
          "name": "",
          "type": "uint256"
        }
      ],
      "stateMutability": "view",
      "type": "function"
    },
    {
      "inputs": [
        {
          "components": [
            {
              "internalType": "address",
              "name": "sender",
              "type": "address"
            },
            {
              "internalType": "uint256",
              "name": "nonce",
              "type": "uint256"
            },
            {
              "internalType": "bytes",
              "name": "initCode",
              "type": "bytes"
            },
            {
              "internalType": "bytes",
              "name": "callData",
              "type": "bytes"
            },
            {
              "internalType": "bytes32",
              "name": "accountGasLimits",
              "type": "bytes32"
            },
            {
              "internalType": "uint256",
              "name": "preVerificationGas",
              "type": "uint256"
            },
            {
              "internalType": "bytes32",
              "name": "gasFees",
              "type": "bytes32"
            },
            {
              "internalType": "bytes",
              "name": "paymasterAndData",
              "type": "bytes"
            },
            {
              "internalType": "bytes",
              "name": "signature",
              "type": "bytes"
            }
          ],
          "internalType": "struct PackedUserOperation",
          "name": "userOp",
          "type": "tuple"
        },
        {
          "internalType": "bytes32",
          "name": "paymasterId",
          "type": "bytes32"
        },
        {
          "internalType": "uint48",
          "name": "validUntil",
          "type": "uint48"
        },
        {
          "internalType": "uint48",
          "name": "validAfter",
          "type": "uint48"
        }
      ],
      "name": "getHash",
      "outputs": [
        {
          "internalType": "bytes32",
          "name": "",
          "type": "bytes32"
        }
      ],
      "stateMutability": "view",
      "type": "function"
    },
    {
      "inputs": [],
      "name": "owner",
      "outputs": [
        {
          "internalType": "address",
          "name": "",
          "type": "address"
        }
      ],
      "stateMutability": "view",
      "type": "function"
    },
    {
      "inputs": [
        {
          "internalType": "bytes",
          "name": "paymasterAndData",
          "type": "bytes"
        }
      ],
      "name": "parsePaymasterAndData",
      "outputs": [
        {
          "internalType": "bytes32",
          "name": "paymasterId",
          "type": "bytes32"
        },
        {
          "internalType": "uint48",
          "name": "validUntil",
          "type": "uint48"
        },
        {
          "internalType": "uint48",
          "name": "validAfter",
          "type": "uint48"
        },
        {
          "internalType": "bytes",
          "name": "signature",
          "type": "bytes"
        }
      ],
      "stateMutability": "pure",
      "type": "function"
    },
    {
      "inputs": [
        {
          "internalType": "bytes32",
          "name": "",
          "type": "bytes32"
        }
      ],
      "name": "paymasterIdBalances",
      "outputs": [
        {
          "internalType": "uint256",
          "name": "",
          "type": "uint256"
        }
      ],
      "stateMutability": "view",
      "type": "function"
    },
    {
      "inputs": [
        {
          "internalType": "enum IPaymaster.PostOpMode",
          "name": "mode",
          "type": "uint8"
        },
        {
          "internalType": "bytes",
          "name": "context",
          "type": "bytes"
        },
        {
          "internalType": "uint256",
          "name": "actualGasCost",
          "type": "uint256"
        },
        {
          "internalType": "uint256",
          "name": "actualUserOpFeePerGas",
          "type": "uint256"
        }
      ],
      "name": "postOp",
      "outputs": [],
      "stateMutability": "nonpayable",
      "type": "function"
    },
    {
      "inputs": [],
      "name": "renounceOwnership",
      "outputs": [],
      "stateMutability": "nonpayable",
      "type": "function"
    },
    {
      "inputs": [
        {
          "internalType": "uint256",
          "name": "value",
          "type": "uint256"
        }
      ],
      "name": "setUnaccountedEPGasOverhead",
      "outputs": [],
      "stateMutability": "nonpayable",
      "type": "function"
    },
    {
      "inputs": [
        {
          "internalType": "address",
          "name": "newOwner",
          "type": "address"
        }
      ],
      "name": "transferOwnership",
      "outputs": [],
      "stateMutability": "nonpayable",
      "type": "function"
    },
    {
      "inputs": [],
      "name": "unlockStake",
      "outputs": [],
      "stateMutability": "nonpayable",
      "type": "function"
    },
    {
      "inputs": [
        {
          "components": [
            {
              "internalType": "address",
              "name": "sender",
              "type": "address"
            },
            {
              "internalType": "uint256",
              "name": "nonce",
              "type": "uint256"
            },
            {
              "internalType": "bytes",
              "name": "initCode",
              "type": "bytes"
            },
            {
              "internalType": "bytes",
              "name": "callData",
              "type": "bytes"
            },
            {
              "internalType": "bytes32",
              "name": "accountGasLimits",
              "type": "bytes32"
            },
            {
              "internalType": "uint256",
              "name": "preVerificationGas",
              "type": "uint256"
            },
            {
              "internalType": "bytes32",
              "name": "gasFees",
              "type": "bytes32"
            },
            {
              "internalType": "bytes",
              "name": "paymasterAndData",
              "type": "bytes"
            },
            {
              "internalType": "bytes",
              "name": "signature",
              "type": "bytes"
            }
          ],
          "internalType": "struct PackedUserOperation",
          "name": "userOp",
          "type": "tuple"
        },
        {
          "internalType": "bytes32",
          "name": "userOpHash",
          "type": "bytes32"
        },
        {
          "internalType": "uint256",
          "name": "maxCost",
          "type": "uint256"
        }
      ],
      "name": "validatePaymasterUserOp",
      "outputs": [
        {
          "internalType": "bytes",
          "name": "context",
          "type": "bytes"
        },
        {
          "internalType": "uint256",
          "name": "validationData",
          "type": "uint256"
        }
      ],
      "stateMutability": "nonpayable",
      "type": "function"
    },
    {
      "inputs": [],
      "name": "verifyingSigner",
      "outputs": [
        {
          "internalType": "address",
          "name": "",
          "type": "address"
        }
      ],
      "stateMutability": "view",
      "type": "function"
    },
    {
      "inputs": [
        {
          "internalType": "address payable",
          "name": "withdrawAddress",
          "type": "address"
        }
      ],
      "name": "withdrawStake",
      "outputs": [],
      "stateMutability": "nonpayable",
      "type": "function"
    },
    {
      "inputs": [
        {
          "internalType": "address payable",
          "name": "",
          "type": "address"
        },
        {
          "internalType": "uint256",
          "name": "",
          "type": "uint256"
        }
      ],
      "name": "withdrawTo",
      "outputs": [],
      "stateMutability": "pure",
      "type": "function"
    },
    {
      "inputs": [
        {
          "internalType": "address payable",
          "name": "withdrawAddress",
          "type": "address"
        },
        {
          "internalType": "uint256",
          "name": "amount",
          "type": "uint256"
        },
        {
          "internalType": "bytes32",
          "name": "paymasterId",
          "type": "bytes32"
        }
      ],
      "name": "withdrawTo",
      "outputs": [],
      "stateMutability": "nonpayable",
      "type": "function"
    }
  ],
  "transactionHash": "0x279609d7f90dcf2a28c30e2159d6302a1b820bf5304dfdd07cf18bc2d76ba692",
  "args": [
    "0x0000000071727De22E5E9d8BAf0edAc6f37da032",
    "0x261F6B90Ec3Ec621D6178053f18b491F1DF7AD23"
  ],
  "numDeployments": 6,
  "solcInputHash": "5b69702682c2362f90a07a1d5c3b0453",
  "bytecode": "0x60c06040523480156200001157600080fd5b506040516200211b3803806200211b8339810160408190526200003491620001c0565b8133806200005d57604051631e4fbdf760e01b8152600060048201526024015b60405180910390fd5b620000688162000097565b506200007481620000e7565b6001600160a01b03908116608052600180551660a05250613e806002556200022a565b600080546001600160a01b038381166001600160a01b0319831681178455604051919092169283917f8be0079c531659141344cd1fd0a4f28419497f9722a3daafe3b4186f6b6457e09190a35050565b6040516301ffc9a760e01b815263122a0e9b60e31b60048201526001600160a01b038216906301ffc9a790602401602060405180830381865afa15801562000133573d6000803e3d6000fd5b505050506040513d601f19601f82011682018060405250810190620001599190620001ff565b620001a75760405162461bcd60e51b815260206004820152601e60248201527f49456e747279506f696e7420696e74657266616365206d69736d617463680000604482015260640162000054565b50565b6001600160a01b0381168114620001a757600080fd5b60008060408385031215620001d457600080fd5b8251620001e181620001aa565b6020840151909250620001f481620001aa565b809150509250929050565b6000602082840312156200021257600080fd5b815180151581146200022357600080fd5b9392505050565b60805160a051611e9362000288600039600081816101e901526110fd0152600081816103a4015281816104940152818161087e01528181610a7801528181610b2e01528181610bfb01528181610c840152610e780152611e936000f3fe60806040526004361061016a5760003560e01c80638da5cb5b116100cb578063bb9fe6bf1161007f578063d0e30db011610059578063d0e30db014610410578063deeb387414610418578063f2fde38b1461043857600080fd5b8063bb9fe6bf146103c6578063c23a5cea146103db578063c399ec88146103fb57600080fd5b806394d4ad60116100b057806394d4ad601461034e5780639bf77fb41461037f578063b0d691fe1461039257600080fd5b80638da5cb5b146102f65780638e7394611461032157600080fd5b806352b7512c11610122578063715018a611610107578063715018a6146102ab578063796d4371146102c05780637c627b21146102d657600080fd5b806352b7512c1461025d578063577f454d1461028b57600080fd5b8063205c287811610153578063205c2878146101b757806323d9ac9b146101d75780632a314db31461023057600080fd5b80630396cb601461016f57806313816d1f14610184575b600080fd5b61018261017d36600461179a565b610458565b005b34801561019057600080fd5b506101a461019f3660046117fb565b61050a565b6040519081526020015b60405180910390f35b3480156101c357600080fd5b506101826101d2366004611885565b610630565b3480156101e357600080fd5b5061020b7f000000000000000000000000000000000000000000000000000000000000000081565b60405173ffffffffffffffffffffffffffffffffffffffff90911681526020016101ae565b34801561023c57600080fd5b506101a461024b3660046118b1565b60036020526000908152604090205481565b34801561026957600080fd5b5061027d6102783660046118ca565b6106bd565b6040516101ae929190611986565b34801561029757600080fd5b506101826102a63660046119a8565b6106e1565b3480156102b757600080fd5b5061018261092e565b3480156102cc57600080fd5b506101a4613a9881565b3480156102e257600080fd5b506101826102f1366004611a26565b610942565b34801561030257600080fd5b5060005473ffffffffffffffffffffffffffffffffffffffff1661020b565b34801561032d57600080fd5b506101a461033c3660046118b1565b60009081526003602052604090205490565b34801561035a57600080fd5b5061036e610369366004611a91565b61095e565b6040516101ae959493929190611ad3565b61018261038d3660046118b1565b6109ac565b34801561039e57600080fd5b5061020b7f000000000000000000000000000000000000000000000000000000000000000081565b3480156103d257600080fd5b50610182610b24565b3480156103e757600080fd5b506101826103f6366004611b44565b610bae565b34801561040757600080fd5b506101a4610c53565b610182610d09565b34801561042457600080fd5b506101826104333660046118b1565b610d6b565b34801561044457600080fd5b50610182610453366004611b44565b610dac565b610460610e0d565b6040517f0396cb6000000000000000000000000000000000000000000000000000000000815263ffffffff821660048201527f000000000000000000000000000000000000000000000000000000000000000073ffffffffffffffffffffffffffffffffffffffff1690630396cb609034906024016000604051808303818588803b1580156104ee57600080fd5b505af1158015610502573d6000803e3d6000fd5b505050505050565b600084358060208701356105216040890189611b61565b60405161052f929190611bc6565b60405190819003902061054560608a018a611b61565b604051610553929190611bc6565b60405190819003902060808a013561056e60e08c018c611b61565b61057d91603491601491611bd6565b61058691611c00565b6040805173ffffffffffffffffffffffffffffffffffffffff90971660208801528601949094526060850192909252608084015260a08381019190915260c08381019290925288013560e08301528701356101008201524661012082015230610140820152610160810186905265ffffffffffff80861661018083015284166101a08201526101c00160405160208183030381529060405280519060200120915050949350505050565b6040517f08c379a000000000000000000000000000000000000000000000000000000000815260206004820152602960248201527f557365207769746864726177546f2077697468207061796d617374657249642060448201527f706172616d65746572000000000000000000000000000000000000000000000060648201526084015b60405180910390fd5b606060006106c9610e60565b6106d4858585610eff565b915091505b935093915050565b6106e9610e0d565b6106f16111d5565b73ffffffffffffffffffffffffffffffffffffffff831661076e576040517f08c379a000000000000000000000000000000000000000000000000000000000815260206004820152601f60248201527f576974686472617720616464726573732063616e6e6f74206265207a65726f0060448201526064016106b4565b600081815260036020526040902054808311156108065761078e83611218565b61079782611218565b6040516020016107a8929190611c3c565b604080517fffffffffffffffffffffffffffffffffffffffffffffffffffffffffffffffe0818403018152908290527f08c379a00000000000000000000000000000000000000000000000000000000082526106b491600401611ce3565b600082815260036020526040902054610820908490611d25565b6000838152600360205260409081902091909155517f205c287800000000000000000000000000000000000000000000000000000000815273ffffffffffffffffffffffffffffffffffffffff8581166004830152602482018590527f0000000000000000000000000000000000000000000000000000000000000000169063205c287890604401600060405180830381600087803b1580156108c257600080fd5b505af11580156108d6573d6000803e3d6000fd5b50505050828473ffffffffffffffffffffffffffffffffffffffff16837f7c036df4a3ccd8dafee40256151b23a8242a39829f08d2fda1869b6d1702631960405160405180910390a45061092960018055565b505050565b610936610e0d565b61094060006112d6565b565b61094a610e60565b610957858585858561134b565b5050505050565b600080803681610971866034818a611bd6565b81019061097e9190611d38565b91965094509250868661099360346060611d74565b61099e928290611bd6565b915091509295509295909350565b6109b46111d5565b34600003610a1e576040517f08c379a000000000000000000000000000000000000000000000000000000000815260206004820152601c60248201527f4465706f7369742076616c75652063616e6e6f74206265207a65726f0000000060448201526064016106b4565b600081815260036020526040902054610a38903490611d74565b6000828152600360205260409081902091909155517fb760faf90000000000000000000000000000000000000000000000000000000081523060048201527f000000000000000000000000000000000000000000000000000000000000000073ffffffffffffffffffffffffffffffffffffffff169063b760faf99034906024016000604051808303818588803b158015610ad257600080fd5b505af1158015610ae6573d6000803e3d6000fd5b50506040513493508492507fa8438fcf270fa5a9499867c1f7f8f9744fa2d8f826c0f2c4153dc417feedb0bc9150600090a3610b2160018055565b50565b610b2c610e0d565b7f000000000000000000000000000000000000000000000000000000000000000073ffffffffffffffffffffffffffffffffffffffff1663bb9fe6bf6040518163ffffffff1660e01b8152600401600060405180830381600087803b158015610b9457600080fd5b505af1158015610ba8573d6000803e3d6000fd5b50505050565b610bb6610e0d565b6040517fc23a5cea00000000000000000000000000000000000000000000000000000000815273ffffffffffffffffffffffffffffffffffffffff82811660048301527f0000000000000000000000000000000000000000000000000000000000000000169063c23a5cea90602401600060405180830381600087803b158015610c3f57600080fd5b505af1158015610957573d6000803e3d6000fd5b6040517f70a082310000000000000000000000000000000000000000000000000000000081523060048201526000907f000000000000000000000000000000000000000000000000000000000000000073ffffffffffffffffffffffffffffffffffffffff16906370a0823190602401602060405180830381865afa158015610ce0573d6000803e3d6000fd5b505050506040513d601f19601f82011682018060405250810190610d049190611d87565b905090565b6040517f08c379a000000000000000000000000000000000000000000000000000000000815260206004820152601760248201527f75736572204465706f736974466f7220696e737465616400000000000000000060448201526064016106b4565b610d73610e0d565b6002805490829055604051829082907f0b2f957fc0a9306310238ef9a212935360e98fe3f8bc525f4cb69d38b1efa85990600090a35050565b610db4610e0d565b73ffffffffffffffffffffffffffffffffffffffff8116610e04576040517f1e4fbdf7000000000000000000000000000000000000000000000000000000008152600060048201526024016106b4565b610b21816112d6565b60005473ffffffffffffffffffffffffffffffffffffffff163314610940576040517f118cdaa70000000000000000000000000000000000000000000000000000000081523360048201526024016106b4565b3373ffffffffffffffffffffffffffffffffffffffff7f00000000000000000000000000000000000000000000000000000000000000001614610940576040517f08c379a000000000000000000000000000000000000000000000000000000000815260206004820152601560248201527f53656e646572206e6f7420456e747279506f696e74000000000000000000000060448201526064016106b4565b606060008080803681610f1861036960e08c018c611b61565b9398509196509450925090506040811480610f335750604181145b610fc157604080517f08c379a00000000000000000000000000000000000000000000000000000000081526020600482015260248101919091527f566572696679696e675061796d61737465723a20696e76616c6964207369676e60448201527f6174757265206c656e67746820696e207061796d6173746572416e644461746160648201526084016106b4565b6000611005610fd28c88888861050a565b7f19457468657265756d205369676e6564204d6573736167653a0a3332000000006000908152601c91909152603c902090565b905060006110128c6113d5565b9050613a9881116110a5576040517f08c379a000000000000000000000000000000000000000000000000000000000815260206004820152602660248201527f546f6b656e5061796d61737465723a2067617320746f6f206c6f7720666f722060448201527f706f73744f70000000000000000000000000000000000000000000000000000060648201526084016106b4565b6110e58285858080601f01602080910402602001604051908101604052809392919081815260200183838082843760009201919091525061140592505050565b73ffffffffffffffffffffffffffffffffffffffff167f000000000000000000000000000000000000000000000000000000000000000073ffffffffffffffffffffffffffffffffffffffff16146111645761114360018787611431565b604051806020016040528060008152509098509850505050505050506106d9565b6000878152600360205260409020548a111561119b576111838a611218565b60008881526003602052604090205461079790611218565b6040805160208101899052016040516020818303038152906040526111c260008888611431565b9850985050505050505050935093915050565b600260015403611211576040517f3ee5aeb500000000000000000000000000000000000000000000000000000000815260040160405180910390fd5b6002600155565b6060600061122583611469565b600101905060008167ffffffffffffffff81111561124557611245611da0565b6040519080825280601f01601f19166020018201604052801561126f576020820181803683370190505b5090508181016020015b7fffffffffffffffffffffffffffffffffffffffffffffffffffffffffffffffff017f3031323334353637383961626364656600000000000000000000000000000000600a86061a8153600a850494508461127957509392505050565b6000805473ffffffffffffffffffffffffffffffffffffffff8381167fffffffffffffffffffffffff0000000000000000000000000000000000000000831681178455604051919092169283917f8be0079c531659141344cd1fd0a4f28419497f9722a3daafe3b4186f6b6457e09190a35050565b6000611359848601866118b1565b905060008260025461136b9190611dcf565b6113759085611d74565b90508060036000848152602001908152602001600020600082825461139a9190611d25565b9091555050604051819083907f0b638e4a825bbd0cbbcc162ab446fb2fa8b60e55d548b763be90f688ad96ac7d90600090a350505050505050565b60006113e460e0830183611b61565b6113f391603491602491611bd6565b6113fc91611de6565b60801c92915050565b600080600080611415868661154b565b9250925092506114258282611598565b50909150505b92915050565b600060d08265ffffffffffff16901b60a08465ffffffffffff16901b8561145957600061145c565b60015b60ff161717949350505050565b6000807a184f03e93ff9f4daa797ed6e38ed64bf6a1f01000000000000000083106114b2577a184f03e93ff9f4daa797ed6e38ed64bf6a1f010000000000000000830492506040015b6d04ee2d6d415b85acef810000000083106114de576d04ee2d6d415b85acef8100000000830492506020015b662386f26fc1000083106114fc57662386f26fc10000830492506010015b6305f5e1008310611514576305f5e100830492506008015b612710831061152857612710830492506004015b6064831061153a576064830492506002015b600a831061142b5760010192915050565b600080600083516041036115855760208401516040850151606086015160001a611577888285856116a0565b955095509550505050611591565b50508151600091506002905b9250925092565b60008260038111156115ac576115ac611e2e565b036115b5575050565b60018260038111156115c9576115c9611e2e565b03611600576040517ff645eedf00000000000000000000000000000000000000000000000000000000815260040160405180910390fd5b600282600381111561161457611614611e2e565b0361164e576040517ffce698f7000000000000000000000000000000000000000000000000000000008152600481018290526024016106b4565b600382600381111561166257611662611e2e565b0361169c576040517fd78bce0c000000000000000000000000000000000000000000000000000000008152600481018290526024016106b4565b5050565b600080807f7fffffffffffffffffffffffffffffff5d576e7357a4501ddfe92f46681b20a08411156116db5750600091506003905082611790565b604080516000808252602082018084528a905260ff891692820192909252606081018790526080810186905260019060a0016020604051602081039080840390855afa15801561172f573d6000803e3d6000fd5b50506040517fffffffffffffffffffffffffffffffffffffffffffffffffffffffffffffffe0015191505073ffffffffffffffffffffffffffffffffffffffff811661178657506000925060019150829050611790565b9250600091508190505b9450945094915050565b6000602082840312156117ac57600080fd5b813563ffffffff811681146117c057600080fd5b9392505050565b600061012082840312156117da57600080fd5b50919050565b803565ffffffffffff811681146117f657600080fd5b919050565b6000806000806080858703121561181157600080fd5b843567ffffffffffffffff81111561182857600080fd5b611834878288016117c7565b9450506020850135925061184a604086016117e0565b9150611858606086016117e0565b905092959194509250565b73ffffffffffffffffffffffffffffffffffffffff81168114610b2157600080fd5b6000806040838503121561189857600080fd5b82356118a381611863565b946020939093013593505050565b6000602082840312156118c357600080fd5b5035919050565b6000806000606084860312156118df57600080fd5b833567ffffffffffffffff8111156118f657600080fd5b611902868287016117c7565b9660208601359650604090950135949350505050565b60005b8381101561193357818101518382015260200161191b565b50506000910152565b60008151808452611954816020860160208601611918565b601f017fffffffffffffffffffffffffffffffffffffffffffffffffffffffffffffffe0169290920160200192915050565b604081526000611999604083018561193c565b90508260208301529392505050565b6000806000606084860312156119bd57600080fd5b83356119c881611863565b95602085013595506040909401359392505050565b60008083601f8401126119ef57600080fd5b50813567ffffffffffffffff811115611a0757600080fd5b602083019150836020828501011115611a1f57600080fd5b9250929050565b600080600080600060808688031215611a3e57600080fd5b853560038110611a4d57600080fd5b9450602086013567ffffffffffffffff811115611a6957600080fd5b611a75888289016119dd565b9699909850959660408101359660609091013595509350505050565b60008060208385031215611aa457600080fd5b823567ffffffffffffffff811115611abb57600080fd5b611ac7858286016119dd565b90969095509350505050565b858152600065ffffffffffff808716602084015280861660408401525060806060830152826080830152828460a0840137600060a0848401015260a07fffffffffffffffffffffffffffffffffffffffffffffffffffffffffffffffe0601f85011683010190509695505050505050565b600060208284031215611b5657600080fd5b81356117c081611863565b60008083357fffffffffffffffffffffffffffffffffffffffffffffffffffffffffffffffe1843603018112611b9657600080fd5b83018035915067ffffffffffffffff821115611bb157600080fd5b602001915036819003821315611a1f57600080fd5b8183823760009101908152919050565b60008085851115611be657600080fd5b83861115611bf357600080fd5b5050820193919092039150565b8035602083101561142b577fffffffffffffffffffffffffffffffffffffffffffffffffffffffffffffffff602084900360031b1b1692915050565b7f496e73756666696369656e742062616c616e636520696e207061796d6173746581527f7249642c2072657175697265643a200000000000000000000000000000000000602082015260008351611c9a81602f850160208801611918565b7f2c20617661696c61626c653a2000000000000000000000000000000000000000602f918401918201528351611cd781603c840160208801611918565b01603c01949350505050565b6020815260006117c0602083018461193c565b7f4e487b7100000000000000000000000000000000000000000000000000000000600052601160045260246000fd5b8181038181111561142b5761142b611cf6565b600080600060608486031215611d4d57600080fd5b83359250611d5d602085016117e0565b9150611d6b604085016117e0565b90509250925092565b8082018082111561142b5761142b611cf6565b600060208284031215611d9957600080fd5b5051919050565b7f4e487b7100000000000000000000000000000000000000000000000000000000600052604160045260246000fd5b808202811582820484141761142b5761142b611cf6565b7fffffffffffffffffffffffffffffffff000000000000000000000000000000008135818116916010851015611e265780818660100360031b1b83161692505b505092915050565b7f4e487b7100000000000000000000000000000000000000000000000000000000600052602160045260246000fdfea26469706673582212205b3dfad63f5b322b2ddbf0ece23ddde6b21d1fde68b3ec1705a85dd0d3da1d2e64736f6c63430008170033",
  "devdoc": {
    "errors": {
      "ECDSAInvalidSignature()": [
        {
          "details": "The signature derives the `address(0)`."
        }
      ],
      "ECDSAInvalidSignatureLength(uint256)": [
        {
          "details": "The signature has an invalid length."
        }
      ],
      "ECDSAInvalidSignatureS(bytes32)": [
        {
          "details": "The signature has an S value that is in the upper half order."
        }
      ],
      "OwnableInvalidOwner(address)": [
        {
          "details": "The owner is not a valid owner account. (eg. `address(0)`)"
        }
      ],
      "OwnableUnauthorizedAccount(address)": [
        {
          "details": "The caller account is not authorized to perform an operation."
        }
      ],
      "ReentrancyGuardReentrantCall()": [
        {
          "details": "Unauthorized reentrant call."
        }
      ]
    },
    "kind": "dev",
    "methods": {
      "addStake(uint32)": {
        "params": {
          "unstakeDelaySec": "- The unstake delay for this paymaster. Can only be increased."
        }
      },
      "deposit()": {
        "details": "Override the default implementation."
      },
      "depositFor(bytes32)": {
        "details": "Add a deposit for this paymaster and given paymasterId (Dapp Depositor ID), used for paying for transaction fees",
        "params": {
          "paymasterId": "dapp identifier for which deposit is being made"
        }
      },
      "getBalance(bytes32)": {
        "details": "get the current deposit for paymasterId (Dapp Depositor ID)",
        "params": {
          "paymasterId": "dapp identifier"
        }
      },
      "owner()": {
        "details": "Returns the address of the current owner."
      },
      "postOp(uint8,bytes,uint256,uint256)": {
        "params": {
          "actualGasCost": "- Actual gas used so far (without this postOp call).",
          "actualUserOpFeePerGas": "- the gas price this UserOp pays. This value is based on the UserOp's maxFeePerGas                        and maxPriorityFee (and basefee)                        It is not the same as tx.gasprice, which is what the bundler pays.",
          "context": "- The context value returned by validatePaymasterUserOp",
          "mode": "- Enum with the following options:                        opSucceeded - User operation succeeded.                        opReverted  - User op reverted. The paymaster still has to pay for gas.                        postOpReverted - never passed in a call to postOp()."
        }
      },
      "renounceOwnership()": {
        "details": "Leaves the contract without owner. It will not be possible to call `onlyOwner` functions. Can only be called by the current owner. NOTE: Renouncing ownership will leave the contract without an owner, thereby disabling any functionality that is only available to the owner."
      },
      "transferOwnership(address)": {
        "details": "Transfers ownership of the contract to a new account (`newOwner`). Can only be called by the current owner."
      },
      "validatePaymasterUserOp((address,uint256,bytes,bytes,bytes32,uint256,bytes32,bytes,bytes),bytes32,uint256)": {
        "params": {
          "maxCost": "- The maximum cost of this transaction (based on maximum gas and gas price from userOp).",
          "userOp": "- The user operation.",
          "userOpHash": "- Hash of the user's request data."
        },
        "returns": {
          "context": "       - Value to send to a postOp. Zero length to signify postOp is not required.",
          "validationData": "- Signature and time-range of this operation, encoded the same as the return                          value of validateUserOperation.                          <20-byte> sigAuthorizer - 0 for valid signature, 1 to mark signature failure,                                                    other values are invalid for paymaster.                          <6-byte> validUntil - last timestamp this operation is valid. 0 for \"indefinite\"                          <6-byte> validAfter - first timestamp this operation is valid                          Note that the validation code cannot use block.timestamp (or block.number) directly."
        }
      },
      "withdrawStake(address)": {
        "params": {
          "withdrawAddress": "- The address to send withdrawn value."
        }
      },
      "withdrawTo(address,uint256)": {
        "details": "Overrides the base function to maintain compatibility. Calls the internal function with a default paymasterId."
      },
      "withdrawTo(address,uint256,bytes32)": {
        "details": "Withdraws the specified amount of gas tokens from the paymaster's balance and transfers them to the specified address.",
        "params": {
          "amount": "The amount of gas tokens to withdraw.",
          "paymasterId": "The paymasterId (Dapp Depositor ID) from which the gas tokens should be withdrawn.",
          "withdrawAddress": "The address to which the gas tokens should be transferred."
        }
      }
    },
    "version": 1
  },
  "userdoc": {
    "kind": "user",
    "methods": {
      "addStake(uint32)": {
        "notice": "Add stake for this paymaster. This method can also carry eth value to add to the current stake."
      },
      "getDeposit()": {
        "notice": "Return current paymaster's deposit on the entryPoint."
      },
      "getHash((address,uint256,bytes,bytes,bytes32,uint256,bytes32,bytes,bytes),bytes32,uint48,uint48)": {
        "notice": "return the hash we're going to sign off-chain (and validate on-chain) this method is called by the off-chain service, to sign the request. it is called on-chain from the validatePaymasterUserOp, to validate the signature. note that this signature covers all fields of the UserOperation, except the \"paymasterAndData\", which will carry the signature itself."
      },
      "postOp(uint8,bytes,uint256,uint256)": {
        "notice": "Post-operation handler. Must verify sender is the entryPoint."
      },
      "unlockStake()": {
        "notice": "Unlock the stake, in order to withdraw it. The paymaster can't serve requests once unlocked, until it calls addStake again"
      },
      "validatePaymasterUserOp((address,uint256,bytes,bytes,bytes32,uint256,bytes32,bytes,bytes),bytes32,uint256)": {
        "notice": "Payment validation: check if paymaster agrees to pay. Must verify sender is the entryPoint. Revert to reject this request. Note that bundlers will reject this method if it changes the state, unless the paymaster is trusted (whitelisted). The paymaster pre-pays using its deposit, and receive back a refund after the postOp method returns."
      },
      "withdrawStake(address)": {
        "notice": "Withdraw the entire paymaster's stake. stake must be unlocked first (and then wait for the unstakeDelay to be over)"
      }
    },
    "notice": "A sample paymaster that uses external service to decide whether to pay for the UserOp. The paymaster trusts an external signer to sign the transaction. The calling user must pass the UserOp to that external signer first, which performs whatever off-chain verification before signing the UserOp. Note that this signature is NOT a replacement for the account-specific signature: - the paymaster checks a signature to agree to PAY for GAS. - the account checks a signature to prove identity and account ownership.",
    "version": 1
  },
  "storageLayout": {
    "storage": [
      {
        "astId": 8,
        "contract": "contracts/samples/VerifyingPaymaster.sol:VerifyingPaymaster",
        "label": "_owner",
        "offset": 0,
        "slot": "0",
        "type": "t_address"
      },
      {
        "astId": 180,
        "contract": "contracts/samples/VerifyingPaymaster.sol:VerifyingPaymaster",
        "label": "_status",
        "offset": 0,
        "slot": "1",
        "type": "t_uint256"
      },
      {
        "astId": 3325,
        "contract": "contracts/samples/VerifyingPaymaster.sol:VerifyingPaymaster",
        "label": "unaccountedEPGasOverhead",
        "offset": 0,
        "slot": "2",
        "type": "t_uint256"
      },
      {
        "astId": 3329,
        "contract": "contracts/samples/VerifyingPaymaster.sol:VerifyingPaymaster",
        "label": "paymasterIdBalances",
        "offset": 0,
        "slot": "3",
        "type": "t_mapping(t_bytes32,t_uint256)"
      }
    ],
    "types": {
      "t_address": {
        "encoding": "inplace",
        "label": "address",
        "numberOfBytes": "20"
      },
      "t_bytes32": {
        "encoding": "inplace",
        "label": "bytes32",
        "numberOfBytes": "32"
      },
      "t_mapping(t_bytes32,t_uint256)": {
        "encoding": "mapping",
        "key": "t_bytes32",
        "label": "mapping(bytes32 => uint256)",
        "numberOfBytes": "32",
        "value": "t_uint256"
      },
      "t_uint256": {
        "encoding": "inplace",
        "label": "uint256",
        "numberOfBytes": "32"
      }
    }
  }
}